:020000040000FA
:1000000002005000000080FB12005FB900030200F4
:100010004AE4900F00782F79018002F0A3D8FCD930
:10002000FA900F2EAA82AB8390006278BA79018091
:1000300015E493A3AC82AD838A828B83F0A3AA825A
:10004000AB838C828D83D8E9D9E712101512000397
:1000500075D0007581BF75100075110F0200087909
:100060000122000080C054E3253DA2E73BB60AD739
:10007000233CACC5A738D7A31EC20000C8C10100ED
:10008000C8420000C842CDCCCC3D25730074656DDC
:1000900070657261747572653A200025392E32667A
:1000A0000068756D69646974793A200025392E34C9
:1000B000660066661EC2BD52163DC5FE02C0000047
:1000C000803F000000003031323334353637383964
:1000D00041424344454600286E756C6C20706F6940
:1000E0006E74657229003031323334353637383921
:1000F000616263646566003F3F3F00F9021550B7D7
:1001000043BA510000204100E7DB2E0000A0401060
:10011000000000080000000A000000E066701008FF
:10012000A3E066700A08A3E066700408A3E06622F4
:10013000C3E7960809E7960809E7960809E796A233
:10014000D265D03322080808E630E711120981127F
:10015000015D080808C64480C61818182218181827
:10016000E9799EC608CAC608CBC608CCC6C37020AB
:100170007996CACBCC7019798ECBCC70137986CC9A
:10018000700EF9802ACA33CACB33CBCC33CC3319A7
:1001900030E7F2CCCBCA3350147004EA30E00DE4FF
:1001A000CA3ACACB3BCBCC3CCC500209C3E913C6FC
:1001B000CC182313C6CB18C6CA18C6F9221201FDE3
:1001C00020F01430E72B74FFFCFBFA747F8022E4EC
:1001D000FCFBFA7480801AB48008BC00F2BB00EF0C
:1001E000800F50EBF9E4C39AFAE49BFBE49CFCE437
:1001F00099C6CC18C6CB18C6CA18C6F922E4C9C617
:1002000008CAC608CBC6D3330308CCC63392F0C3A2
:10021000947F402E94184019C9B90704CACBCC2248
:100220005025C309CA33CACB33CBCC33CC33D9F432
:1002300022F4600DC9CCC313CB13CBCA13CAD9F6B1
:10024000CC22E4FCFBFA2214FCFBFA22E6C33318AE
:10025000461846184622E7C333194719471947225B
:10026000181818E6084608700AE608C3337005E651
:1002700033F4220822191919E7094709700AE70916
:10028000C3337005E733F4220922E6084608C31396
:100290004608336002E633F422E7094709C31347EF
:1002A00009336002E733F42212028A6025120299B0
:1002B000602012024C7003020256080808E76670BC
:1002C000101819E766700A1819E76670041819E71C
:1002D0006622F42212028A601C120299601712022E
:1002E0004C70071202567001D322C0D01202567011
:1002F00006D0D0B322C32233D0D0501430E0F6C39E
:10030000E7960809E7960809E7960809E796B322F1
:1003100020E0D5E6970809E6970809E6970809E678
:1003200097B32212028A601B120299601612024CC5
:100330007007120256600CB322C0D012025670052C
:10034000D0D022C32233D0D0501330E0EBC3E79695
:100350000809E7960809E7960809E7962220E0E4ED
:10036000E6970809E6970809E6970809E697220044
:1003700012028A604F1202996012E7548066F612E8
:1003800002607011120256703B090909F4F618F662
:1003900018F618F622120275701512024C08080899
:1003A00060EAE6447FF618768018E4F618F6221222
:1003B000024C60161202567012E4F608F608F608AF
:1003C000E65480F609090918181822EAC0E0EBC0C3
:1003D000E0ECC0E0EDC0E0E687F0A4FBACF008E69E
:1003E00087F0A42CFCE435F0FA1809E687F0A42C79
:1003F0004B60027401CA35F0FCE433FB09E687F078
:10040000D2F7A42CCB35F0FC1908E687F0A42BCC4E
:1004100035F0FBE433FD0819E687F0D2E7A42C4A57
:10042000CB35F0CD3400FC09E687F0D2E7A42DCC23
:1004300035F0FDE433FA0918E687F0D2F7A42CCDA5
:1004400035F0CA3400FC08E687F0D2E7D2F7A42AD8
:10045000CC35F07A7E20E70B0ACB33CBCD33CDCC35
:1004600033CC33CB3350147004ED30E00ED2F1E4D2
:10047000CD3DCDCC3CCC3B5005DA05C2F1EB547FF1
:10048000C63308E63392F0FBE73309E733C39A50EB
:100490002D2B70190C0D4C4D70151806E608C33342
:1004A000700D20F10AA2F013F6E418800B4024E44A
:1004B000F630F002768018F618F618F68024D33B52
:1004C00014501074FFA2F013F6187680E418F61892
:1004D000F6800FA2F013F618E63303F618ECF618C0
:1004E000EDF6D0E0FDD0E0FCD0E0FBD0E0FA221247
:1004F0000299604612028A603DE9687008F618F6B3
:1005000018F618F622748067F71205230909097492
:100510008067F72212028A601D120299700519196C
:1005200019801A120260701F120275C37003E66709
:100530003319191940071818182208080874FFF60B
:1005400018F618F618F62212027560171202567085
:100550002192F012024C7019501720F0140808086C
:10056000090909E7F61819E7F61819E7F61819E75F
:10057000F62212024C60E6E869701F0808E6248043
:10058000F608E436F618547FB47F0CE65480600712
:10059000F6E418F618F622181822E9C6CC08C6CDDB
:1005A00008C6CE08C6CFC0E0E8C0E0EAC0E0EBC0B5
:1005B000E009E9F809E7FA09E7FBE6F918E6F8C304
:1005C000EC98ED99EE9AEBC2E7F5F0EFC2E795F003
:1005D000500E600CEBCFFBEACEFAE9CDF9E8CCF88F
:1005E000EAA2E7D2E7FAEB33FB13F5F0EEA2E7D28B
:1005F000E7FEEF33FFC5F013A2E730E601B313C502
:10060000F0C3C0E0C0F07F00C39BFB605B94186048
:100610000C401AD0E023F9D0E0F80206F28AF0E9A3
:10062000486003D2F0E4AFF0FAF9F8803BEB30E435
:100630000D89F0EA6003D2F0E4AFF0F9CAF8EB30CC
:10064000E30D88F0EF6002D2F0AFF0E4CAC9F8EB36
:1006500054076014FBC3EA13FAE913F9E813F8EF3F
:10066000135002D2E0FFDBEDD0E0C0E030E739C349
:10067000E49FFFF5F0EC98FC42F0ED99FD42F0EEBE
:100680009AFE42F0D0E0F9D0E0F8E5F0607AE92394
:10069000F9EE20E742D8028067C3EF33FFEC33FC6A
:1006A000ED33FDEE33FE80EAEC28FCED39FDEE3A49
:1006B000FED0E023F9D0E0F84002801BC3EE13FE29
:1006C000ED13FDEC13FCEF135002D2E0FF08B8006D
:1006D000067F7F74FF802EEF3350178CF020F002DE
:1006E00060100CBC000C0DBD00080EBE000408E834
:1006F00060DFE933E813FFEE2313FE4F4D4C800813
:10070000E95480FFE4FEFDFCEE33EF33F47004FCAB
:10071000FD7E80D0E0FBD0E0FAD0E0F8D0E0CFC69C
:1007200018CEC618CDC618CCC6F92212028A70049B
:1007300018181822120299700D74FFF61819F6187D
:1007400019F61819F622E7548066F612024C700F5B
:1007500012025670F014F608F608F608F680D11268
:100760000256700CF608F608768008E6447F80ECA6
:10077000120278700C12026360BFE65480F6E480C7
:10078000BB120263700519191980A5E869700C760F
:100790003F18768018F618F6E8F922E6CDC0E01882
:1007A000ECC0E0E633CD33CDD313F6E719FCE719FF
:1007B0001933CC33C3947F400ECD9D502408E654AA
:1007C00080F6E418F6800FF4043D14501408E64453
:1007D0007FF6187680E418F618F6D0E0FCD0E0FD3D
:1007E00022CCD313CCFD18E4C6CBC0E018E4C6CAB3
:1007F000C0E00808ED08C633E613F618E433C67502
:10080000F003C3CA97CA09CB97CB199C40047D0853
:10081000802EBD00030208D416B6FF050606081692
:1008200018C3CA33CACB33CB33CA27CA09CB37CB99
:10083000193CC37D08803E187D0820E75CC633C69E
:10084000CA33CACB33CB33DDF1D5F0EB30E77BCA0B
:1008500097CA09CB974ACB199C406F4B7025E6206D
:10086000E0218066187D08C3CA97CA09CB97CB19C7
:100870009CD3C633C6CA33CACB33CB3350C9DDE7AA
:10088000D5F0E1D3E4C636C608C636C608C636C6B5
:1008900008C636C61818188031C3CA97CA09CB973C
:1008A000CB199CB34097C633C6CA33CACB33CB33BC
:1008B000DD34D5F02EC6A2E0C640C8CA27CA09CB8F
:1008C00037194A70BECB3CB480B90808E63308E655
:1008D00033601F181818D0E0FAD0E0FBD0E0FCD04D
:1008E000E0FD22187D08CA27CA09CB37CB193CD3B3
:1008F000808013F618E4B67F11F618B6FF0EF618CE
:10090000C60470D20808768080CAF618F618F680F9
:10091000C5E4CFC0E0E4CEC0E0E4CDC0E0E4CCC0AC
:10092000E075F020C3E633F608E633F608E633F662
:1009300008E633F6181818EC33FCED33FDEE33FE01
:10094000EF33FFC3EC9709ED9709EE9709EF97197D
:100950001919400FFFEC97FC09ED97FD09EE97FE82
:10096000191906D5F0BEECF709EDF709EEF709EF16
:10097000F7191919D0E0FCD0E0FDD0E0FED0E0FF7F
:1009800022181818E4C396F608E496F608E496F6DA
:1009900008E496F622E0F608A3E0F608A3E0F608DD
:1009A000A3E0F622E6F008A3E6F008A3E6F008A329
:1009B000E6F022CAC0E0E6F0A308DAFAD0E0FA22B4
:1009C000CAC0E0E0A3C582CCC582C583CDC583F093
:1009D000A3C582CCC582C583CDC583DAE6D0E0CA83
:1009E00022C3E498F8E499F9120A228026C3E49A13
:1009F000FAE49BFBE920E7E9120A22E498F8E4997B
:100A0000F922C3E498F8E499F9120A22E498F8E488
:100A100099F9C3E49AFAE49BFB22EB20E7CFE920A3
:100A2000E7E0B90010BB0008E88AF084F8AAF022D9
:100A3000E4FBC8FA22EB70227B10C833C8C933C963
:100A4000335007C39AC3DBF280069A50012ADBEACF
:100A5000C833F4C8C933F4C9FA2275F008E4C833BE
:100A6000C8C933C933C99AC99B5004C92AC93BD5DF
:100A7000F0ECFBC833F4C8E4C9FA22600D08C6A242
:100A8000E713C618C613C6D5E0F322251010AF0829
:100A9000F510400215118008F51040021511D2AF73
:100AA00022C0D0251010AF08F510500205118008A3
:100AB000F51050020511D2AFD0D0222510F58210CA
:100AC000AF08F510400215118008F510400215110D
:100AD000D2AF851183222510F582E43511F58322EA
:100AE000E4732510C582C0E0E51134FFC583C0E082
:100AF000E510C3958224F9F8E4C5A88583118582A1
:100B000010C5A8E8CEF0A3E520F0A37808E608F029
:100B1000A3DEFAEFF0A3E58124FBF8E608F0A3E6F4
:100B200008F0A30808E608F0A3E608F0A31581156D
:100B300081D0E0FED0E0F815811581E8C0E0EEC07C
:100B4000E022851183851082E0A3FEE0A3F52078E2
:100B500008E0A3F608DFFAE0A3FFE0A3C0E0E0A30B
:100B6000C0E0E0A3C0E0E0A3C0E0E4C5A885821037
:100B7000858311C5A8D083D08222740280027401BB
:100B8000C0E0F404120ABBD0E01209B3227404805E
:100B90000474028000CCC0E0EDC0E0E510C39CCC42
:100BA000AD1150011D10AF068C108D1180068C10F8
:100BB0008D11D2AF1209C0D0E0FDD0E0FC22D0836D
:100BC000D082C5F0E493A3C5F0C395F0F5F0E493AB
:100BD000A3C395F04005E5F0048001E475F002A49C
:100BE0002582F582E5F03583F583E493A3C0E0E444
:100BF00093C0E022D083D082CCC0E0E493A360060F
:100C0000120C1E1470FAE493A36006120C3D1470CB
:100C1000FAD0E0FCE493A3C0E0E493C0E022C0E09B
:100C2000E493A3D39C5010E493A3C39C400AD0E068
:100C3000D0E0D0E0020C11A3A3A3D0E022C0E0E4F6
:100C400093A36C7009D0E0D0E0D0E0020C11A3A314
:100C5000D0E022800F000000000000000000000033
:100C600000000000EAF8EBF974FF28FA74FF39FB82
:100C7000740068700374006970DB2243FDC0E5FDF9
:100C8000D286C2877A008005D287C2870AEAC394D7
:100C90000940F5120C972243FDC0E5FDD286C287BC
:100CA0007A017B00120C53D2877A017B00120C531D
:100CB000C2867A017B00120C53C2877A037B001232
:100CC0000C53D2877A017B00120C53D2867A017BB7
:100CD00000120C53C2872274F4120AE2EAFEEBFF00
:100CE0008C0A8D0B890C750800120C97E50C120B01
:100CF000BE0101130D070DF90C7903120D52E9F82D
:100D0000E50828F508800C7905120D52E9F8E50888
:100D100028F50843FD8053FDBFA28640FCA2865003
:100D200006E5082401F5087901120DCAE98E828FC3
:100D300083A3F07901120DCAE98E828F83F07900C6
:100D4000120DCAE9850A82850B83F0A9087F050286
:100D50000B4274F7120AE2E9FF43FDC0E5FDC287CA
:100D6000C2867E008013C2867A017B00120C53D2A9
:100D7000877A017B00120C530EEEC394085017C201
:100D800087750880750900EE7808120A7BE5085F10
:100D900060D4D28680D2C28743FD8053FDBF7A01E2
:100DA0007B00120C53D2877A017B00120C53A2866F
:100DB000E492E0F5087A017B00120C53C28743FDF0
:100DC000C0E5FDA9087F02020B4274F8120AE2E9AD
:100DD000FE75080043FD8053FDBFC2877F80801DE4
:100DE000D2877A017B00120C53A2865003EF42088F
:100DF000C2877A017B00120C53EFC313FFEFC39439
:100E00000150DD43FDC0E5FDEE70047A0180027AF9
:100E100000EAA2E09286D2877A037B00120C53C2CA
:100E200087D286A9087F01020B4274F1120AE2748C
:100E3000E0120A8B900F2E7808120995741C120A82
:100E4000D678081209A4900F327808120995741800
:100E5000120AD678081209A4900F3678081209955C
:100E60007414120AD678081209A4900F3A7808125E
:100E700009957410120AD678081209A4900F3E78CA
:100E800008120995740C120AD678081209A48A82ED
:100E90008B83780812099585108285118378081252
:100EA00009A48C828D837808120995900F3A780CEA
:100EB0001209957808790C12036F900F42780C1282
:100EC00009957808790C1205147404120AD678086A
:100ED0001209A47414120AD6780812099585108292
:100EE000851183780C1209957808790C12036F85A7
:100EF0001082851183780C1209957808790C1203F9
:100F00006FC008C009C00AC00B7418120AD6780C4A
:100F10001209958510828511837808120995780C3D
:100F2000790812036FD00BD00AD009D0087808795D
:100F30000C120514741C120AD6780C120995780844
:100F4000790C1205147408120AD678081209A474D0
:100F500004120AD67808120995900F46780C1209E7
:100F6000957808790C120514C008C009C00AC00B96
:100F7000740C120AD678081209958510828511839F
:100F8000780C1209957808790C12036F7410120A04
:100F9000D6780C1209957808790C120514D00FD068
:100FA0000ED00DD00C780C790812036F7408120A59
:100FB000D67808120995780C7908120514900F4A12
:100FC0007808120995780C79081202D45008900F0D
:100FD0004E780C120995900F527808120995780CEA
:100FE00079081203235008900F52780C1209957457
:100FF00004120AD678081209958C828D837808121B
:1010000009A48A828B83780C1209A47420120AA185
:101010007F08020B4274FE120A8B740185108285D0
:101020001183F07F02121245120C7B804A900F0050
:10103000E0F508A3E0F509E4F50AF50B78081201DC
:1010400060900F0078081209A4900F04E0F508A33F
:10105000E0F509E4F50AF50B7808120160900F0439
:1010600078081209A47C047D0F7A007B0F120E2AE7
:101070007A507BC31211DB7E00851082851183E0DC
:10108000F97401120AD6AC82AD837A007B0F120C80
:10109000D7E92EFEEFF97401120AD6AC82AD837A3D
:1010A000047B0F120CD7E92EFE900F04E0F508A385
:1010B000E0F509E4F50AF50B7808120160900F3AA3
:1010C000780C1209957808790C12036F900F7E78CE
:1010D0000C1209957808790C120514900F17E50881
:1010E000F0A3E509F0A3E50AF0A3E50BF0750859B4
:1010F00075090F7808120B7A7C567D0F7A087B0FE2
:101100001212D67402120AA17C0D7D007A087B0FA0
:10111000121274900F17120B8D7C677D0F7A087B6B
:101120000F1212D67404120AA1740A900F11F07CE7
:101130000A7D007A087B0F121274900F00E0F50808
:10114000A3E0F509E4F50AF50B7808120160900FA9
:1011500082780C1209957808790C12036F900F862B
:10116000780C1209957808790C120514900F2AE56D
:1011700008F0A3E509F0A3E50AF0A3E50BF0750874
:101180006D75090F7808120B7A7C567D0F7A1B7BE0
:101190000F1212D67402120AA17C0A7D007A1B7B00
:1011A0000F121274900F2A120B8D7C787D0F7A1B10
:1011B0007B0F1212D67404120AA1740A900F24F045
:1011C0007C0A7D007A1B7B0F121274EE70030210F2
:1011D0002D120C7BB290B2910210707800790080D1
:1011E00008E82401F8E93400F9C3E89AE99B40F1E2
:1011F000780079008008E82401F8E93400F9C3E8B0
:101200009AE99B40F1780079008008E82401F8E928
:101210003400F9C3E89AE99B40F17800790080082E
:10122000E82401F8E93400F9C3E89AE99B40F17831
:101230000079008008E82401F8E93400F9C3E89A4D
:10124000E99B40F12253C6BFE59DA2E650FA53C682
:10125000B8E5C6439D0475F10143F430E5F44386D7
:101260008043C50843C23BE5C2D2E943864043A858
:1012700084E5A82274F8120AE278007900801E8AB8
:10128000828B83E0F5C18A828B83A3AA82AB83A27F
:10129000E950FCC2E9E82401F8E93400F9C3E89C0C
:1012A000E99DA2D265D03340D67F01020B42C082B5
:1012B000C0838A828B83121343E9F08A828B83E096
:1012C0002401F8A3E03400F98A828B83E8F0A3E9D3
:1012D000F0D083D0822274F7120AE274FC120A8BD7
:1012E0007402120AD6EAF0A3EBF0ECFAEDFB740DEF
:1012F000120AD6A882A983851082851183E8F0A3FB
:10130000E9F0851082851183858208858309780834
:10131000120B7A7404120AD685820885830978082C
:10132000120B7A7CAE7D121218197404120AA17481
:1013300002120AD6121343E4F07404120AA17F02C7
:10134000020B42E0F8A3E0F58388822274F1120ACE
:10135000E274FD120A8B7402120AD6E9F08A088B35
:10136000098C0A8D0B7414120AD6E0FEA3E0FF85E7
:101370001082851183E4F0A3F0900F8A780C120993
:10138000957808790C1202D45003021429900F8E1C
:10139000780C1209957808790C1202A860030214DF
:1013A0007D7416120AD6E070030214BF8510828580
:1013B0001183C082C0837412120AD6122237D083DE
:1013C000D0821217AE502B851082851183C3E09412
:1013D000FCA3E094FFA2D265D03340167402120A37
:1013E000D6E412231C7412120AD6C3E098F0A3E0CC
:1013F00099F07412120AD61217E87417120AD6E07E
:1014000070030214BC7416120AD6E40214BE900FC4
:10141000C7780C1209957808790C12072B85108271
:10142000851183E0240A12233D900FCB780C12091A
:10143000957808790C1202D440D4900FCF780C1212
:1014400009957808790C1202D440030213A1900F79
:10145000CF780C1209957808790C12072B122334D7
:1014600080D8900FC7780C1209957808790C120370
:101470006F851082851183E024F61217EB900FD34D
:10148000780C1209957808790C12032340D4900F38
:101490008A780C1209957808790C1203234003020C
:1014A00013A1900FCF780C1209957808790C1203CC
:1014B0006F8510828511831217E880D27401F07451
:1014C00002120AD6E060077A007B000215B71217F5
:1014D000C1506D1217D9120AD6E0FCA3E0FDEC70E2
:1014E00001ED70087417120AD6E0600B742E8E821C
:1014F0008F83F0A30EAF837A007B0080091217D987
:10150000120AD61217E8EA24FF1AEB34FFFB851003
:101510008285118312179E500C7412120AD6E07045
:1015200002A3E070D885108285118374FFC39CF8F4
:1015300074FF9DF91217AE50030216897A01808953
:10154000122231C3E498FAE499FB806B85080C857C
:10155000090D850A0E850B0F780C1201BDAC0CE548
:101560000D3395E0F50EF50F780C120145780879EA
:101570000C1204EF900FCF780C1209957808790CB3
:1015800012036FEC1217CCEAF8EBF97401280AE4A5
:1015900039FBE87001E9701F7412120AD6E070027C
:1015A000A3E070087417120AD6E0600B742E8E82C6
:1015B0008F83F0A30EAF837412120AD612179E50B7
:1015C0008B900FD7780C1209957808790C1202D4F9
:1015D00040030216897C01EE24FFF8EF34FFF97412
:1015E00014120AD6E0F508A3E0F50988828983E0A1
:1015F000642E6010E02CF0643A70077430F07C01C7
:1016000080027C00E8FAE9FBEA24FF18EB34FFF9DA
:10161000C3E5089AE5099B40D2EC7001E4606A7466
:1016200002120AD6E06039EEF8EF800DE088828978
:1016300083F0E824FF18E934FFF9C3E50898E509C9
:1016400099501812177AE0642E70E1E824FEF582B2
:10165000E934FFF583121787F980D7122334801EEF
:101660008E828F83A3AE82AF83EEF8EF80061217CF
:101670007A121787F9C3E50898E5099940F07414C0
:10168000120AD61217BC7431F07416120AD6E07022
:1016900005801A1EAF83EE24FFF582EF34FFF58339
:1016A000E0643060EEE0642E70031EAF83740212BB
:1016B0000AD6E0700302176C1217CEA3A983121783
:1016C000C15018742D8E828F83F00EE9FF85108231
:1016D00085118312226B1217F6800A742B8E828F6B
:1016E00083F00EE9FF7C007D00EE240AFEEF34005B
:1016F000FFEC24010CED3400FD121790120A1AEAD7
:101700001217CC121790120A1A1218027002A3E0D4
:1017100070DFC3EC9402ED1217A640D5ECFAEDFB96
:10172000C3E49CF8E49DF9EE28F582EF39F583E0F7
:10173000C0E0C3E49AF8E49BF9EE28F8EF39F9EC3D
:1017400028F8ED39F974F528F58274FF39F583D05E
:10175000E0F0EC24FF1CED34FFFDC3EC9401ED122E
:1017600017A650BCEE24F6FEEF34FFFFEEFAEFFBB7
:101770007403120AA17F08020B42E824FFFAE9343D
:10178000FFFB8A828B8322E088828983F018EB2218
:101790008510828511831222E77A0A7B0022C3E03A
:1017A0009AA3E09B80029400A2D265D03322C3E0CA
:1017B00098A3E09980F2851082851183E01222803F
:1017C00022851082851183C3A3E080DA24308E82C3
:1017D0008F83F0A3AE82AF832274308E828F83F02A
:1017E000A3AE82AF83741222E024FFF0A3E034FFA3
:1017F000F022A882A983851082851183E8F0A3E9ED
:10180000F022851082851183E8F0A3E912181022D6
:10181000F0851082851183E02274F1120AE274AE21
:10182000120A8B7402120AD61222F57418120AD602
:10183000ECF0A3EDF0740F120AD6E4F0A38022744A
:1018400061120AD61222217404120AD6E0F9741821
:10185000120AD61217BC120AE0740F120AD612220C
:1018600008F07402120AD6122276FA7402120AD60C
:101870001222BE120AD612232C120AD6EAF07425BE
:101880006A6010E070B9740F120AD61222217452E5
:101890000217727402120AD61222766425701A7424
:1018A00002120AD61222BE120AD61217FC74611254
:1018B0000AD612222179258095740E120AD6E4F0F8
:1018C000740D120AD6E4F0740C120AD6E4F0740512
:1018D000120AD6E4F07420120AD61217F2741E12FD
:1018E0000AD67492F0A3740F80187405120AD6E019
:1018F00070077405120AD6EAF07402120AD6E8F0EC
:10190000A3E9F07402120AD61222CA120AD61222CF
:101910005EFA120BF4000520EA182331192BF21895
:101920002D28193035193919740C120AD6E00480A3
:10193000C7740D80F5740E80F17402120AD612225B
:101940005E642A70607463120AD6122263FB8A8274
:101950008B83E0FCA3E0FD740A120AD6ECF0A3ED41
:10196000F0EA24020A0AEB3400FB7463120AD6126E
:1019700022ED740A120AD61217C7501F740A120AEF
:10198000D6122221C3E49AFAE49BFB740A120AD607
:101990001222F5740C120AD6E004F07402120AD670
:1019A0001217FC8058740A120AD6E4F0A3803C7423
:1019B0000A120AD6122237E875F00AA4F8AAF075BE
:1019C000F00AE9A42AF9E82508F8E93400F974D006
:1019D00028F874FF39F9740A120AD6122307120A7A
:1019E000D61222CA120AD6E8F0A3E9F07402120A4B
:1019F000D61222884007E508C3943A40B2740C120C
:101A00000AD6E06007740E120AD6E4F07402120AD5
:101A1000D6122276642E6003021AAE7402120AD61F
:101A20001222BE120AD6122307120AD61222766496
:101A30002A70377463120AD6122276F8A3E0F98866
:101A4000828983E0FEA3E0FFE824020808E934006D
:101A5000F97463120AD6122251122307120AD612FF
:101A600022CA120AD61217FC80487E007F00740238
:101A7000120AD6122288403AE508C3943A5033EE4F
:101A800075F00AA4FEAAF075F00AEFA42AFFEE256D
:101A900008F8EF3400F974D028FE74FF39FF74029F
:101AA000120AD61222CA120AD61217FC80C07EFF72
:101AB0007FFF7A007402120AD61222CA120AD6E0F6
:101AC000FBA3E0F5838B82E0120BF400034CD81AE1
:101AD00068D91A6CD81AE11A0A7402120AD61217B7
:101AE000FC7402120AD6122276FB7402120AD61273
:101AF00022BE120AD612232C120AD6EBF0120BF4D5
:101B0000001000AC2045801F475B1F58941C639455
:101B10001B64411D65801F66791F675B1F69411D3E
:101B20006E341B6F761C70941C73CD1B75941C78DF
:101B3000881CBC207463120AD61222DA120AD6124A
:101B400017FCEA6035740F120AD6E0FCA3E0FD33FF
:101B500095E0FE7406120AD6122291ECF0A3EDF085
:101B6000A3EEF0A3F07463120AD6122298120AD6DA
:101B7000122251E8F0A3E9021861740F120AD6127A
:101B800022377406120AD6122263F5838A82E8F09D
:101B9000A3E980D07463120AD6122291E0C0E074E7
:101BA00020120AD6D0E0F07463120AD612229812DC
:101BB0000AD61222511217FC7421120AD6A882A941
:101BC000837412120AD6E8F0A3E90220D4746312D7
:101BD0000AD61222DA120AD61217FC7406120AD694
:101BE0001222DA120AD6E02402FAA3E03400FB74CF
:101BF00063120AD61222ED1217F6E87001E9700D91
:101C000085108285118374A3F0A3740FF012220350
:101C100050047E107F277408120AD6E4F0A38008CF
:101C20007408120AD612220812231C88828983A300
:101C3000AA82AB838510828511831222F58882895E
:101C400083E0600A7408120AD612223B40D21222A4
:101C5000AA7412120AD61217FC7408120AD612229B
:101C60006B7412120AD6E028F8A3E039F9851082C5
:101C7000851183021BC6740D120AD6E0600AEE704D
:101C800001EF70047E017F00741E120AD674B2F058
:101C9000A3740FF07463120AD61222DA120AD61253
:101CA000232C120AD6E06470703C7406120AD61215
:101CB00022A0120AD612230F120AD6E02402122200
:101CC00048120AD61222511217FC900FDB78081224
:101CD0000995741A120AD678081209A47405120A12
:101CE000D6E4F0021DDEEA60217406120AD612174D
:101CF000BC78081209957414120AD678081209A43F
:101D00007406120AD6E0240480147406120AD6124D
:101D100022A0120AD612230F120AD6E0240212229F
:101D200048120AD612225112232C120AD6E0646FEE
:101D30007005900FDF8096E06475708E900FE380E1
:101D40008C7463120AD61222DA120AD61217FCEA2F
:101D500060187406120AD61217BC780C1209957412
:101D600006120AD6E02404F8801F7406120AD6125E
:101D70002276F50CA3E0F50D3395E0F50EF50F7422
:101D800006120AD6E024020808122249120AD612C4
:101D90002321120AD6780C1209A4900F8E7808120B
:101DA00009957808790C12013050217405120AD671
:101DB000742DF07414120AD6780812099578081256
:101DC00009847414120AD678081209A4900FE378D3
:101DD00008120995741A120AD678081209A47451C7
:101DE000120AD61217F27412120AD6122324120AF9
:101DF000D6C082C083900F8E7808120995D083D008
:101E000082780812011B60097411120AD6740180CD
:101E1000067411120AD6E4F0EE7001EF7006E0705D
:101E200003021ECC1222AA8510828511831223245C
:101E3000120AD6780C120995741A120AD67808126A
:101E40000995780C7908120911741E120AD6E0253A
:101E500008FAA3E035098A82F583E0C0E01217B6DC
:101E6000D0E0F07414120AD6780C120995741A1284
:101E70000AD67808120995780C7908120911741499
:101E8000120AD6780C1209A47414120AD6C082C0A1
:101E900083900F8E7808120995D083D0827808122B
:101EA000011B70801222035023740E120AD6E060C8
:101EB0001B7405120AD6E06004D2F08002C2F074EE
:101EC0000A120AD612221180031223441222AA7483
:101ED00051120AD6C082C0838510828511831222D6
:101EE00021D083D082E582C39AFAE5839BFBC3EAC3
:101EF0009EEB12224440D2740D120AD6E070030207
:101F000020D57411120AD6E070030220D574041291
:101F10000AD6E064786005E06458702585108285F3
:101F2000118312232C120AD6E0C0E01217B6D0E0BB
:101F300012180C1222B51218021217BD74300220AA
:101F4000D4E0646F60030220D5851082851183126E
:101F5000225E643070030220D580DB7408120AD63A
:101F60007401F0A3E4F07404120AD6E024FEF0EE4B
:101F70007001EF70147E0180177404120AD6E4F029
:101F80007408120AD6E4F0A3F012220350047E066D
:101F90007F007463120AD61222DA120AD61217FCD4
:101FA0007406120AD61217BC780C12099574061220
:101FB0000AD6E02404122248120AD6122321120A59
:101FC000D6780C1209A4900F8E7808120995780C17
:101FD000790812032350227405120AD6742DF07466
:101FE00014120AD67808120995E50BB2E7F50B74BE
:101FF00014120AD678081209A4740A120AD61222F8
:10200000377420120AD6E58228F8E58339F91217C9
:10201000F6740D120AD6E0F5087808120B7E7409E2
:10202000120AD6E0F5087808120B7E7402120AD65E
:10203000120B918E088F097808120B7A740A120A13
:10204000D6E0F9741A120AD67808120995AA08ABD4
:1020500009AC0AAD0B12134C7406120AA1741212C9
:102060000AD61222F5740E120AD6E06068740512C0
:102070000AD6E06004D2F08002C2F0740A120AD6D6
:102080001222117412120AD6C082C083122231D0D9
:1020900083D082E0C398F8A3E099F9C3E89EE912DF
:1020A000224450311222AA12234480D77402120A09
:1020B000D61222B07402120AD61217FC851082853D
:1020C000118374C3F0A3740FF07412120AD674C68D
:1020D000F0A3740FF07412120AD6C082C0831222C9
:1020E00031D083D082E0C398FEA3E099FF740A1236
:1020F0000AD612223B500A7408120AD6E4F0A380D2
:10210000327405120AD6E06004D2F08002C2F07484
:102110000A120AD6E0C39EF8A3E09FF9A2F0E49267
:10212000E0FAE8C39AF8E99400F97408120AD6E8CC
:10213000F0A3E9F0740C120AD6E0702B80197461D8
:10214000120AD6122227120AD61217BC120AE074FB
:102150000F120AD612233A7408120AD61222FB1260
:102160000AD61217C750D77405120AD6E0604D740C
:1021700061120AD61222217405120AD6E0F97418E7
:10218000120AD61217BC120AE080297461120AD60C
:10219000122221851082851183122276F974181279
:1021A0000AD61217BC120AE085108285118312220A
:1021B000D01217F6740F120AD612233AEE24FF1E1D
:1021C000EF34FFFFC31217A650C1740C120AD6E0F9
:1021D00070030218627408120AD61222FB120AD681
:1021E0001217C750030218627461120AD61222270E
:1021F000120AD61217BC120AE0740F120AD6122362
:102200003A80D2C3EF0217A6E02401F0A3E0340025
:1022100022A2F0E492E0F8E0C398FEA3E09400FF6D
:1022200022E0FAA3E0FB22E0FAA3E0FB7920741895
:10223000228510828511831222E722C3E09EA3E04B
:10224000122244229F0217A8F8A3E03400F9746315
:102250002212225522E0FAA3E0F5838A822212227A
:1022600055E022122255E0FAA3E0221222E7C3E44D
:1022700098F8E499F92212227A2212227FE022E0D1
:10228000F8A3E0F58388822212227AF508C39430FD
:102290002212227A1222802212227A2402F880A9A3
:1022A0001222E0E8FAE9FB7414228510828511837A
:1022B000E01222B52224FFF8A3E034FFF922E02443
:1022C0000108A3E03400F97402221222D074022221
:1022D000E02401F8A3E03400F9221222E07406227F
:1022E00012227F1222E722E0F8A3E0F922E0FCA309
:1022F000E0F5838C82EAF0A3EBF022E024FFF0A368
:10230000E034FFF0740822E8F0A3E9F0740222EA56
:10231000F0A3EBF0A3E4F0A3F0740622122359F922
:1023200022122255E8F0A3E9F0741422E8F0A3E9A0
:10233000F0740422851082851183E02401F0A3E06B
:102340003400F022851082851183E8F0A3E912237E
:1023500059F58388827430F022121810F8A3E02215
:0400000500000050A7
:00000001FF
