:020000040000FA
:030000000200CB30
:10007B00020FAF00000080FB1200DAB90003020090
:10008B00C5E4900F00783079018002F0A3D8FCD939
:10009B00FA900F2FAA82AB839000DD7898790180BC
:1000AB0015E493A3AC82AD838A828B83F0A3AA82DF
:1000BB00AB838C828D83D8E9D9E7120D8412007E35
:1000CB0075D0007581BF75100075110F0200837913
:1000DB00012225730070726573737572653A200087
:1000EB0025392E32660074656D7065726174757298
:1000FB00653A200025382E34660055555555555513
:10010B000000803E0000803D0100B04130313233B1
:10011B0034353637383941424344454600286E75ED
:10012B006C6C20706F696E746572290030313233DC
:10013B00343536373839616263646566003F3F3F5B
:10014B00000000803F00000000F9021550B743BAD1
:10015B00510000204100E7DB2E0000A04010000002
:10016B0000080000000A000000E066701008A3E021
:10017B0066700A08A3E066700408A3E06622C3E772
:10018B00960809E7960809E7960809E796A2D2654B
:10019B00D03322080808E630E7111209DA1201B64B
:1001AB00080808C64480C618181822181818E979C8
:1001BB009EC608CAC608CBC608CCC6C370207996A3
:1001CB00CACBCC7019798ECBCC70137986CC700ED0
:1001DB00F9802ACA33CACB33CBCC33CC331930E7B3
:1001EB00F2CCCBCA3350147004EA30E00DE4CA3AB7
:1001FB00CACB3BCBCC3CCC500209C3E913C6CC18C1
:10020B002313C6CB18C6CA18C6F92212025620F001
:10021B001430E72B74FFFCFBFA747F8022E4FCFBA9
:10022B00FA7480801AB48008BC00F2BB00EF800F18
:10023B0050EBF9E4C39AFAE49BFBE49CFCE499C60B
:10024B00CC18C6CB18C6CA18C6F922E4C9C608CA48
:10025B00C608CBC6D3330308CCC63392F0C3947F06
:10026B00402E94184019C9B90704CACBCC2250258B
:10027B00C309CA33CACB33CBCC33CC33D9F422F436
:10028B00600DC9CCC313CB13CBCA13CAD9F6CC227E
:10029B00E4FCFBFA2214FCFBFA22E6C333184618E3
:1002AB0046184622E7C3331947194719472218182E
:1002BB0018E6084608700AE608C3337005E633F4FF
:1002CB00220822191919E7094709700AE709C333EC
:1002DB007005E733F4220922E6084608C3134608E3
:1002EB00336002E633F422E7094709C313470933A6
:1002FB006002E733F4221202E360251202F260205F
:10030B001202A570030202AF080808E76670101806
:10031B0019E766700A1819E76670041819E7662260
:10032B00F4221202E3601C1202F260171202A57093
:10033B00071202AF7001D322C0D01202AF7006D0E9
:10034B00D0B322C32233D0D0501430E0F6C3E7969B
:10035B000809E7960809E7960809E796B32220E013
:10036B00D5E6970809E6970809E6970809E697B3D3
:10037B00221202E3601B1202F260161202A5700732
:10038B001202AF600CB322C0D01202AF7005D0D0F6
:10039B0022C32233D0D0501330E0EBC3E7960809C9
:1003AB00E7960809E7960809E7962220E0E4E69726
:1003BB000809E6970809E6970809E6972200120252
:1003CB00E3604F1202F26012E7548066F61202B934
:1003DB0070111202AF703B090909F4F618F618F602
:1003EB0018F6221202CE70151202A508080860EA50
:1003FB00E6447FF618768018E4F618F6221202A56A
:10040B0060161202AF7012E4F608F608F608E6540E
:10041B0080F609090918181822EAC0E0EBC0E0ECD5
:10042B00C0E0EDC0E0E687F0A4FBACF008E687F097
:10043B00A42CFCE435F0FA1809E687F0A42C4B60E9
:10044B00027401CA35F0FCE433FB09E687F0D2F7FE
:10045B00A42CCB35F0FC1908E687F0A42BCC35F097
:10046B00FBE433FD0819E687F0D2E7A42C4ACB3521
:10047B00F0CD3400FC09E687F0D2E7A42DCC35F0A3
:10048B00FDE433FA0918E687F0D2F7A42CCD35F04A
:10049B00CA3400FC08E687F0D2E7D2F7A42ACC35A1
:1004AB00F07A7E20E70B0ACB33CBCD33CDCC33CCDC
:1004BB0033CB3350147004ED30E00ED2F1E4CD3D6C
:1004CB00CDCC3CCC3B5005DA05C2F1EB547FC633A7
:1004DB0008E63392F0FBE73309E733C39A502D2B31
:1004EB0070190C0D4C4D70151806E608C333700DC2
:1004FB0020F10AA2F013F6E418800B4024E4F63046
:10050B00F002768018F618F618F68024D33B1450B8
:10051B001074FFA2F013F6187680E418F618F68024
:10052B000FA2F013F618E63303F618ECF618EDF6F7
:10053B00D0E0FDD0E0FCD0E0FBD0E0FA221202F2DA
:10054B0060461202E3603DE9687008F618F618F68B
:10055B0018F622748067F712057C09090974806705
:10056B00F7221202E3601D1202F2700519191980AD
:10057B001A1202B9701F1202CEC37003E667331949
:10058B00191940071818182208080874FFF618F6EE
:10059B0018F618F6221202CE60171202AF702192D3
:1005AB00F01202A57019501720F014080808090959
:1005BB0009E7F61819E7F61819E7F61819E7F622FE
:1005CB001202A560E6E869701F0808E62480F608A9
:1005DB00E436F618547FB47F0CE654806007F6E4DB
:1005EB0018F618F622181822E9C6CC08C6CD08C68C
:1005FB00CE08C6CFC0E0E8C0E0EAC0E0EBC0E0093F
:10060B00E9F809E7FA09E7FBE6F918E6F8C3EC980D
:10061B00ED99EE9AEBC2E7F5F0EFC2E795F0500ECD
:10062B00600CEBCFFBEACEFAE9CDF9E8CCF8EAA205
:10063B00E7D2E7FAEB33FB13F5F0EEA2E7D2E7FED6
:10064B00EF33FFC5F013A2E730E601B313C5F0C3D8
:10065B00C0E0C0F07F00C39BFB605B9418600C4054
:10066B001AD0E023F9D0E0F802074B8AF0E9486092
:10067B0003D2F0E4AFF0FAF9F8803BEB30E40D89EC
:10068B00F0EA6003D2F0E4AFF0F9CAF8EB30E30D17
:10069B0088F0EF6002D2F0AFF0E4CAC9F8EB540770
:1006AB006014FBC3EA13FAE913F9E813F8EF1350DC
:1006BB0002D2E0FFDBEDD0E0C0E030E739C3E49FCE
:1006CB00FFF5F0EC98FC42F0ED99FD42F0EE9AFE4E
:1006DB0042F0D0E0F9D0E0F8E5F0607AE923F9EEEA
:1006EB0020E742D8028067C3EF33FFEC33FCED33D6
:1006FB00FDEE33FE80EAEC28FCED39FDEE3AFED040
:10070B00E023F9D0E0F84002801BC3EE13FEED139B
:10071B00FDEC13FCEF135002D2E0FF08B800067F8C
:10072B007F74FF802EEF3350178CF020F002601097
:10073B000CBC000C0DBD00080EBE000408E860DF09
:10074B00E933E813FFEE2313FE4F4D4C8008E954B9
:10075B0080FFE4FEFDFCEE33EF33F47004FCFD7E12
:10076B0080D0E0FBD0E0FAD0E0F8D0E0CFC618CED6
:10077B00C618CDC618CCC6F9221202E3700418189D
:10078B0018221202F2700D74FFF61819F61819F6EA
:10079B001819F622E7548066F61202A5700F1202A2
:1007AB00AF70F014F608F608F608F680D11202AF17
:1007BB00700CF608F608768008E6447F80EC12028F
:1007CB00D1700C1202BC60BFE65480F6E480BB1201
:1007DB0002BC700519191980A5E869700C763F18D1
:1007EB00768018F618F6E8F922E6CDC0E018ECC0D2
:1007FB00E0E633CD33CDD313F6E719FCE719193304
:10080B00CC33C3947F400ECD9D502408E65480F624
:10081B00E418F6800FF4043D14501408E6447FF6F8
:10082B00187680E418F618F6D0E0FCD0E0FD22CC68
:10083B00D313CCFD18E4C6CBC0E018E4C6CAC0E0A5
:10084B000808ED08C633E613F618E433C675F00353
:10085B00C3CA97CA09CB97CB199C40047D08802E3D
:10086B00BD000302092D16B6FF050606081618C3B0
:10087B00CA33CACB33CB33CA27CA09CB37CB193CC4
:10088B00C37D08803E187D0820E75CC633C6CA339B
:10089B00CACB33CB33DDF1D5F0EB30E77BCA97CA4C
:1008AB0009CB974ACB199C406F4B7025E620E02172
:1008BB008066187D08C3CA97CA09CB97CB199CD3FE
:1008CB00C633C6CA33CACB33CB3350C9DDE7D5F0F9
:1008DB00E1D3E4C636C608C636C608C636C608C651
:1008EB0036C61818188031C3CA97CA09CB97CB19CB
:1008FB009CB34097C633C6CA33CACB33CB33DD3434
:10090B00D5F02EC6A2E0C640C8CA27CA09CB3719F4
:10091B004A70BECB3CB480B90808E63308E63360B6
:10092B001F181818D0E0FAD0E0FBD0E0FCD0E0FDA7
:10093B0022187D08CA27CA09CB37CB193CD3808034
:10094B0013F618E4B67F11F618B6FF0EF618C604A8
:10095B0070D20808768080CAF618F618F680C5E4BF
:10096B00CFC0E0E4CEC0E0E4CDC0E0E4CCC0E075A5
:10097B00F020C3E633F608E633F608E633F608E66E
:10098B0033F6181818EC33FCED33FDEE33FEEF3372
:10099B00FFC3EC9709ED9709EE9709EF9719191912
:1009AB00400FFFEC97FC09ED97FD09EE97FE191927
:1009BB0006D5F0BEECF709EDF709EEF709EFF719DD
:1009CB001919D0E0FCD0E0FDD0E0FED0E0FF2218FA
:1009DB001818E4C396F608E496F608E496F608E4CD
:1009EB0096F6226017080808C6A2E713C618C613A6
:1009FB00C618C613C618C613C6D5E0E92270090877
:100A0B000808226016181818C6C333C608C633C6A2
:100A1B0008C633C608C633C6D5E0EA22E026F0087E
:100A2B00A3E036F008A3E036F008A3E036F022E0AE
:100A3B00F608A3E0F608A3E0F608A3E0F622E6F03A
:100A4B0008A3E6F008A3E6F008A3E6F022CAC0E08C
:100A5B00E6F0A308DAFAD0E0FA22CAC0E0E0A3C5B8
:100A6B0082CCC582C583CDC583F0A3C582CCC5829C
:100A7B00C583CDC583DAE6D0E0CA22C3E498F8E497
:100A8B0099F9120AC78026C3E49AFAE49BFBE92082
:100A9B00E7E9120AC7E498F8E499F922C3E498F855
:100AAB00E499F9120AC7E498F8E499F9C3E49AFABD
:100ABB00E49BFB22EB20E7CFE920E7E0B90010BB7A
:100ACB000008E88AF084F8AAF022E4FBC8FA22EBCB
:100ADB0070227B10C833C8C933C9335007C39AC3BC
:100AEB00DBF280069A50012ADBEAC833F4C8C9331B
:100AFB00F4C9FA2275F008E4C833C8C933C933C93D
:100B0B009AC99B5004C92AC93BD5F0ECFBC833F4F6
:100B1B00C8E4C9FA22600D08C6A2E713C618C613AB
:100B2B00C6D5E0F322700422600D18C6C333C60885
:100B3B00C633C6D5E0F41822251010AF08F51040C7
:100B4B000215118008F51040021511D2AF22C0D04A
:100B5B00251010AF08F510500205118008F5105044
:100B6B00020511D2AFD0D0222510F58210AF08F5B7
:100B7B0010400215118008F51040021511D2AF85F7
:100B8B001183222510F582E43511F58322E47325B8
:100B9B0010C582C0E0E51134FFC583C0E0E510C38A
:100BAB00958224F9F8E4C5A8858311858210C5A820
:100BBB00E8CEF0A3E520F0A37808E608F0A3DEFA70
:100BCB00EFF0A3E58124FBF8E608F0A3E608F0A319
:100BDB000808E608F0A3E608F0A315811581D0E01C
:100BEB00FED0E0F815811581E8C0E0EEC0E022856B
:100BFB001183851082E0A3FEE0A3F5207808E0A323
:100C0B00F608DFFAE0A3FFE0A3C0E0E0A3C0E0E05A
:100C1B00A3C0E0E0A3C0E0E4C5A8858210858311E2
:100C2B00C5A8D083D08222C0D02510C582C0E0E5F4
:100C3B001134FFC583C0E0E510C3958224F310AFD8
:100C4B00088583118582108008858311858210D2D7
:100C5B00AFC8F0A3E9F0A3EAF0A3EBF0A37908E7A0
:100C6B0009F0A3D8FAECF0A3EDF0A3EEF0A3EFF0AC
:100C7B00A3D0E0F0A3D0E0F0A3D0E0F0A3E520F008
:100C8B00A3E5F0F0A322851183851082E0C0E0A3D9
:100C9B00E0F9A3E0FAA3E0FBA37808E0F608A3DFF2
:100CAB00FAE0FCA3E0FDA3E0FEA3E0FFA3E0C0E0BD
:100CBB00A3E0C0E0A3E0F5D0A3E0F520A3E0A3F50B
:100CCB00F0E4C5A8858311858210C5A8D082D08396
:100CDB00D0E0F8D0E032740280027401C0E0F4047A
:100CEB00120B73D0E0120A58227404800474028031
:100CFB0000CCC0E0EDC0E0E510C39CCCAD115001C1
:100D0B001D10AF068C108D1180068C108D11D2AF7B
:100D1B00120A65D0E0FDD0E0FC22D083D082CCC09B
:100D2B00E0E493A36006120D4F1470FAE493A360F2
:100D3B0006120D6E1470FAD0E0FCE493A3C0E0E44D
:100D4B0093C0E022C0E0E493A3D39C5010E493A3A0
:100D5B00C39C400AD0E0D0E0D0E0020D42A3A3A395
:100D6B00D0E022C0E0E493A36C7009D0E0D0E0D0D7
:100D7B00E0020D42A3A3D0E02212123E1211D57A4B
:100D8B003979261211A0805FB2A0B2857AE87B0375
:100D9B00120FEA0EEEC3940340EE75084375090F6C
:100DAB007808120CE17C2F7D0F7A047B0F121271E5
:100DBB007402120B597C0D7D007A047B0F12120406
:100DCB00900F28120CF47C517D0F7A197B0F1212A5
:100DDB00717404120B59740A900F21F07C097D0079
:100DEB007A197B0F1212047A587B0F790112116159
:100DFB007A597B0F79021211617A5A7B0F790312A0
:100E0B0011617A5B7B0F79041211617A5C7B0F792C
:100E1B0005121161900F58E0FCE4FDFEFF900F00EE
:100E2B00ECF0A3EDF0A3EEF0A3EFF0900F00780839
:100E3B00120A3A74087808120A08900F0078081200
:100E4B000A49900F59E0F508E4F509F50AF50B90FE
:100E5B000F007808120A27900F007808120A3A74CC
:100E6B00087808120A08900F007808120A49900FA8
:100E7B005AE0F508E4F509F50AF50B900F00780830
:100E8B00120A27900F007808120A3A740478081295
:100E9B0009EE900F007808120A49900F007808129B
:100EAB000A3A780812019E900F5D780C120A3A7874
:100EBB0008790C1203C8900F137808120A497508A9
:100ECB003275090F7808120CE17C2F7D0F7A047BA9
:100EDB000F1212717402120B597C0A7D007A047B7B
:100EEB000F121204900F13120CF47C3D7D0F7A0439
:100EFB007B0F1212717404120B59740A900F0DF0C0
:100F0B007C0A7D007A047B0F121204900F5BE07950
:100F1B0000900F17F0A3E9F0900F17E0F8E4C8F971
:100F2B00900F17E8F0A3E9F0900F5CE0F8790090D0
:100F3B000F17E028F0A3E039F0900F17E0F508A3A6
:100F4B00E0F50974047808120B20900F17E508F0F0
:100F5B00A3E509F0900F17E0F508A3E0F509E50903
:100F6B003395E0F50AF50B780812019E900F617826
:100F7B000C120A3A7808790C1203C8900F287808DB
:100F8B00120A49900F287808120A3A900F65780CCC
:100F9B00120A3A7808790C12032D4003020DA57E34
:100FAB0000020D9FC0E074F2120C32E58AA2E150F0
:100FBB0024538AFD7A2C7B0F7902121161900F2C2E
:100FCB00E05477FA79021211A0900F2DE02401F072
:100FDB00A3E03400F0758A00C2EB7F01020C918014
:100FEB0020000000000000000000000000000000D6
:100FFB0000000000000000000000000000000000E6
:10100B0000EAF8EBF974FF28FA74FF39FB740068F7
:10101B00700374006970CA2243FD02D2812243FD22
:10102B0002C2812243FD01D2802243FD01C28022F4
:10103B0053FDFD2212102312102F7A327B00120F58
:10104B00EA1210297A327B00120FEA1210357A322B
:10105B007B00120FEA221210297A327B00120FEA60
:10106B0012102F7A327B00120FEA1210237A327B86
:10107B0000120FEA1210357A327B00120FEA22129D
:10108B00102912102F7A327B00120FEA1210357AC8
:10109B00327B00120FEA2212102312102F7A327BAE
:1010AB0000120FEA1210357A327B00120FEA22126D
:1010BB00102312102F7A327B00120FEAA28192D5E5
:1010CB007A327B00120FEA1210357A327B00120F44
:1010DB00EAA2D5500379002279012274F7120B9AF8
:1010EB00E9FF7E00800412108A0EEEC3940850169E
:1010FB008F08750900EE7808120B30E508548060F4
:10110B00E51210A280E37F02020BFA74F8120B9A1D
:10111B007F001210237E008005EFC333FF0EEEC35A
:10112B00940850281210357A327B00120FEA1210F5
:10113B002F7A327B00120FEA12103BA28192D5A2BA
:10114B00D550D6EFC333D392E0FF80D1121035EFD9
:10115B00F97F01020BFA74F8120B9AE9FE8A828B63
:10116B008312103F79C01210E61210BAE960FAEE42
:10117B00F91210E61210BAE960FA12103F79C11297
:10118B0010E61210BAE960FA121116E9F0121061AA
:10119B007F01020BFA74F8120B9AE9FEEAFF1210A8
:1011AB003F79C01210E61210BAE960FAEEF912108C
:1011BB00E61210BAE960FAEFF91210E61210BAE96A
:1011CB0060FA1210617F01020BFA53C6BFE59DA2B4
:1011DB00E650FA53C6B8E5C6439D0475F10143F4D6
:1011EB0030E5F443868043C50843C23BE5C2D2E9F0
:1011FB0043864043A884E5A82274F8120B9A780022
:10120B007900801E8A828B83E0F5C18A828B83A34F
:10121B00AA82AB83A2E950FCC2E9E82401F8E934C5
:10122B0000F9C3E89CE99DA2D265D03340D67F017B
:10123B00020BFA43FD2043FF01D285D2A022C082CC
:10124B00C0838A828B831212DEE9F08A828B83E061
:10125B002401F8A3E03400F98A828B83E8F0A3E938
:10126B00F0D083D0822274F7120B9A74FC120B43CA
:10127B007402120B8EEAF0A3EBF0ECFAEDFB740D9B
:10128B00120B8EA882A983851082851183E8F0A3A7
:10129B00E9F085108285118385820885830978089A
:1012AB00120CE17404120B8E858208858309780871
:1012BB00120CE17C497D121217B47404120B597491
:1012CB0002120B8E1212DEE4F07404120B597F0221
:1012DB00020BFAE0F8A3E0F58388822274F1120B7B
:1012EB009A74FD120B437402120B8EE9F08A088B71
:1012FB00098C0A8D0B7414120B8EE0FEA3E0FF8594
:10130B001082851183E4F0A3F0900F9E780C120AE3
:10131B003A7808790C12032D50030213C4900FA2D4
:10132B00780C120A3A7808790C1203016003021444
:10133B00187416120B8EE0700302145A85108285F6
:10134B001183C082C0837412120B8E1221D2D083F0
:10135B00D082121749502B851082851183C3E094DC
:10136B00FCA3E094FFA2D265D03340167402120B9B
:10137B008EE41222B77412120B8EC3E098F0A3E026
:10138B0099F07412120B8E1217837417120B8EE0D6
:10139B0070030214577416120B8EE4021459900F3B
:1013AB00A6780C120A3A7808790C120784851082F9
:1013BB00851183E0240A1222D8900FAA780C120A06
:1013CB003A7808790C12032D40D4900FAE780C129A
:1013DB000A3A7808790C12032D400302133C900F44
:1013EB00AE780C120A3A7808790C1207841222CFC5
:1013FB0080D8900FA6780C120A3A7808790C120351
:10140B00C8851082851183E024F6121786900FB2DF
:10141B00780C120A3A7808790C12037C40D4900F9E
:10142B009E780C120A3A7808790C12037C4003025E
:10143B00133C900FAE780C120A3A7808790C120311
:10144B00C885108285118312178380D27401F074C2
:10145B0002120B8EE060077A007B00021552121706
:10146B005C506D121774120B8EE0FCA3E0FDEC7058
:10147B0001ED70087417120B8EE0600B742E8E82C8
:10148B008F83F0A30EAF837A007B00800912177451
:10149B00120B8E121783EA24FF1AEB34FFFB851015
:1014AB0082851183121739500C7412120B8EE07057
:1014BB0002A3E070D885108285118374FFC39CF85A
:1014CB0074FF9DF912174950030216247A01808983
:1014DB001221CCC3E498FAE499FB806B85080C8548
:1014EB00090D850A0E850B0F780C120216AC0CE554
:1014FB000D3395E0F50EF50F780C12019E780879F7
:10150B000C120548900FAE780C120A3A7808790C39
:10151B001203C8EC121767EAF8EBF97401280AE416
:10152B0039FBE87001E9701F7412120B8EE0700228
:10153B00A3E070087417120B8EE0600B742E8E8272
:10154B008F83F0A30EAF837412120B8E12173950C8
:10155B008B900FB6780C120A3A7808790C12032D7F
:10156B0040030216247C01EE24FFF8EF34FFF974DC
:10157B0014120B8EE0F508A3E0F50988828983E04D
:10158B00642E6010E02CF0643A70077430F07C012C
:10159B0080027C00E8FAE9FBEA24FF18EB34FFF940
:1015AB00C3E5089AE5099B40D2EC7001E4606A74CC
:1015BB0002120B8EE06039EEF8EF800DE088828925
:1015CB0083F0E824FF18E934FFF9C3E50898E5092F
:1015DB00995018121715E0642E70E1E824FEF5827D
:1015EB00E934FFF583121722F980D71222CF801E20
:1015FB008E828F83A3AE82AF83EEF8EF8006121735
:10160B0015121722F9C3E50898E5099940F07414EF
:10161B00120B8E1217577431F07416120B8EE0707A
:10162B0005801A1EAF83EE24FFF582EF34FFF5839E
:10163B00E0643060EEE0642E70031EAF8374021220
:10164B000B8EE07003021707121769A3A9831217F9
:10165B005C5018742D8E828F83F00EE9FF851082FB
:10166B00851183122206121791800A742B8E828F9A
:10167B0083F00EE9FF7C007D00EE240AFEEF3400C0
:10168B00FFEC24010CED3400FD12172B120ABFEAFC
:10169B0012176712172B120ABF12179D7002A3E0C5
:1016AB0070DFC3EC9402ED12174140D5ECFAEDFB61
:1016BB00C3E49CF8E49DF9EE28F582EF39F583E05D
:1016CB00C0E0C3E49AF8E49BF9EE28F8EF39F9ECA3
:1016DB0028F8ED39F974F528F58274FF39F583D0C4
:1016EB00E0F0EC24FF1CED34FFFDC3EC9401ED1294
:1016FB00174150BCEE24F6FEEF34FFFFEEFAEFFB82
:10170B007403120B597F08020BFAE824FFFAE93431
:10171B00FFFB8A828B8322E088828983F018EB227D
:10172B008510828511831222827A0A7B0022C3E004
:10173B009AA3E09B80029400A2D265D03322C3E02F
:10174B0098A3E09980F2851082851183E012221B09
:10175B0022851082851183C3A3E080DA24308E8228
:10176B008F83F0A3AE82AF832274308E828F83F08F
:10177B00A3AE82AF83741222E024FFF0A3E034FF08
:10178B00F022A882A983851082851183E8F0A3E952
:10179B00F022851082851183E8F0A3E91217AB22A2
:1017AB00F0851082851183E02274F1120B9A74AECE
:1017BB00120B437402120B8E1222907418120B8EA2
:1017CB00ECF0A3EDF0740F120B8EE4F0A3802274F7
:1017DB0061120B8E1221BC7404120B8EE0F974187B
:1017EB00120B8E121757120B98740F120B8E1221AD
:1017FB00A3F07402120B8E122211FA7402120B8ECA
:10180B00122259120B8E1222C7120B8EEAF074257C
:10181B006A6010E070B9740F120B8E1221BC7452F7
:10182B0002170D7402120B8E1222116425701A749A
:10183B0002120B8E122259120B8E12179774611211
:10184B000B8E1221BC79258095740E120B8EE4F051
:10185B00740D120B8EE4F0740C120B8EE4F0740505
:10186B00120B8EE4F07420120B8E12178D741E1255
:10187B000B8E7469F0A3740F80187405120B8EE035
:10188B0070077405120B8EEAF07402120B8EE8F0DF
:10189B00A3E9F07402120B8E122265120B8E122129
:1018AB00F9FA120D25000520851823CC182B8D185D
:1018BB002DC31830D018D418740C120B8EE0048082
:1018CB00C7740D80F5740E80F17402120B8E122109
:1018DB00F9642A70607463120B8E1221FEFB8A82EC
:1018EB008B83E0FCA3E0FD740A120B8EECF0A3EDEE
:1018FB00F0EA24020A0AEB3400FB7463120B8E121B
:10190B002288740A120B8E121762501F740A120B64
:10191B008E1221BCC3E49AFAE49BFB740A120B8E61
:10192B00122290740C120B8EE004F07402120B8EC8
:10193B001217978058740A120B8EE4F0A3803C7434
:10194B000A120B8E1221D2E875F00AA4F8AAF075D0
:10195B00F00AE9A42AF9E82508F8E93400F974D06B
:10196B0028F874FF39F9740A120B8E1222A2120B8B
:10197B008E122265120B8EE8F0A3E9F07402120BA3
:10198B008E1222234007E508C3943A40B2740C121E
:10199B000B8EE06007740E120B8EE4F07402120BC8
:1019AB008E122211642E6003021A497402120B8EDE
:1019BB00122259120B8E1222A2120B8E12221164BA
:1019CB002A70377463120B8E122211F8A3E0F98878
:1019DB00828983E0FEA3E0FFE824020808E93400D3
:1019EB00F97463120B8E1221EC1222A2120B8E12BF
:1019FB002265120B8E12179780487E007F007402AF
:101A0B00120B8E122223403AE508C3943A5033EE60
:101A1B0075F00AA4FEAAF075F00AEFA42AFFEE25D2
:101A2B0008F8EF3400F974D028FE74FF39FF740204
:101A3B00120B8E122265120B8E12179780C07EFF2F
:101A4B007FFF7A007402120B8E122265120B8EE04E
:101A5B00FBA3E0F5838B82E0120D2500034C731A78
:101A6B0068741A6C731A7C1A0A7402120B8E121792
:101A7B00977402120B8E122211FB7402120B8E1230
:101A8B002259120B8E1222C7120B8EEBF0120D2560
:101A9B000010004720451B1F47F61E582F1C632FB5
:101AAB001B64DC1C651B1F66141F67F61E69DC1CA0
:101ABB006ECF1A6F111C702F1C73681B752F1C783F
:101ACB00231C57207463120B8E122275120B8E126D
:101ADB001797EA6035740F120B8EE0FCA3E0FD3311
:101AEB0095E0FE7406120B8E12222CECF0A3EDF097
:101AFB00A3EEF0A3F07463120B8E122233120B8E33
:101B0B001221ECE8F0A3E90217FC740F120B8E12F2
:101B1B0021D27406120B8E1221FEF5838A82E8F015
:101B2B00A3E980D07463120B8E12222CE0C0E074F8
:101B3B0020120B8ED0E0F07463120B8E1222331234
:101B4B000B8E1221EC1217977421120B8EA882A9FF
:101B5B00837412120B8EE8F0A3E902206F746312E8
:101B6B000B8E122275120B8E1217977406120B8E98
:101B7B00122275120B8EE02402FAA3E03400FB74E0
:101B8B0063120B8E122288121791E87001E9700D07
:101B9B00851082851183747AF0A3740FF012219E45
:101BAB0050047E107F277408120B8EE4F0A380087C
:101BBB007408120B8E1221A31222B788828983A379
:101BCB00AA82AB8385108285118312229088828929
:101BDB0083E0600A7408120B8E1221D640D21222B7
:101BEB00457412120B8E1217977408120B8E122259
:101BFB00067412120B8EE028F8A3E039F9851082D7
:101C0B00851183021B61740D120B8EE0600AEE705E
:101C1B0001EF70047E017F00741E120B8E7489F02D
:101C2B00A3740FF07463120B8E122275120B8E12AB
:101C3B0022C7120B8EE06470703C7406120B8E126E
:101C4B00223B120B8E1222AA120B8EE024021221BF
:101C5B00E3120B8E1221EC121797900FBA78081221
:101C6B000A3A741A120B8E7808120A497405120B71
:101C7B008EE4F0021D79EA60217406120B8E1217A6
:101C8B00577808120A3A7414120B8E7808120A4904
:101C9B007406120B8EE0240480147406120B8E1241
:101CAB00223B120B8E1222AA120B8EE0240212215F
:101CBB00E3120B8E1221EC1222C7120B8EE0646F13
:101CCB007005900FBE8096E06475708E900FC28089
:101CDB008C7463120B8E122275120B8E121797EAED
:101CEB0060187406120B8E121757780C120A3A747E
:101CFB0006120B8EE02404F8801F7406120B8E1252
:101D0B002211F50CA3E0F50D3395E0F50EF50F74EC
:101D1B0006120B8EE0240208081221E4120B8E121D
:101D2B0022BC120B8E780C120A49900FA278081263
:101D3B000A3A7808790C12018950217405120B8E1E
:101D4B00742DF07414120B8E7808120A3A7808125C
:101D5B0009DD7414120B8E7808120A49900FC278A1
:101D6B0008120A3A741A120B8E7808120A49745127
:101D7B00120B8E12178D7412120B8E1222BF120BB6
:101D8B008EC082C083900FA27808120A3AD083D0FB
:101D9B0082780812017460097411120B8E74018021
:101DAB00067411120B8EE4F0EE7001EF7006E0700A
:101DBB0003021E671222458510828511831222BFF2
:101DCB00120B8E780C120A3A741A120B8E780812B8
:101DDB000A3A780C790812096A741E120B8EE025E8
:101DEB0008FAA3E035098A82F583E0C0E0121751A7
:101DFB00D0E0F07414120B8E780C120A3A741A128B
:101E0B000B8E7808120A3A780C790812096A741446
:101E1B00120B8E780C120A497414120B8EC082C0EE
:101E2B0083900FA27808120A3AD083D082780812D6
:101E3B000174708012219E5023740E120B8EE06081
:101E4B001B7405120B8EE06004D2F08002C2F0749A
:101E5B000A120B8E1221AC80031222DF1222457460
:101E6B0051120B8EC082C083851082851183122183
:101E7B00BCD083D082E582C39AFAE5839BFBC3EA8D
:101E8B009EEB1221DF40D2740D120B8EE070030219
:101E9B0020707411120B8EE0700302207074041208
:101EAB000B8EE064786005E06458702585108285A0
:101EBB0011831222C7120B8EE0C0E0121751D0E033
:101ECB001217A712225012179D12175874300220A6
:101EDB006FE0646F6003022070851082851183129E
:101EEB0021F96430700302207080DB7408120B8EB2
:101EFB007401F0A3E4F07404120B8EE024FEF0EEF8
:101F0B007001EF70147E0180177404120B8EE4F0D5
:101F1B007408120B8EE4F0A3F012219E50047E067F
:101F2B007F007463120B8E122275120B8E12179791
:101F3B007406120B8E121757780C120A3A7406128B
:101F4B000B8EE024041221E3120B8E1222BC120B17
:101F5B008E780C120A49900FA27808120A3A780C64
:101F6B00790812037C50227405120B8E742DF074B9
:101F7B0014120B8E7808120A3AE50BB2E7F50B74C4
:101F8B0014120B8E7808120A49740A120B8E122146
:101F9B00D27420120B8EE58228F8E58339F91217DB
:101FAB0091740D120B8EE0F5087808120CE574098C
:101FBB00120B8EE0F5087808120CE57402120B8EEA
:101FCB00120CF88E088F097808120CE1740A120BA8
:101FDB008EE0F9741A120B8E7808120A3AAA08AB23
:101FEB0009AC0AAD0B1212E77406120B59741212DC
:101FFB000B8E122290740E120B8EE0606874051219
:10200B000B8EE06004D2F08002C2F0740A120B8EC9
:10201B001221AC7412120B8EC082C0831221CCD051
:10202B0083D082E0C398F8A3E099F9C3E89EE91244
:10203B0021DF50311222451222DF80D77402120B9E
:10204B008E12224B7402120B8E12179785108285FB
:10205B001183749AF0A3740FF07412120B8E749D8B
:10206B00F0A3740FF07412120B8EC082C083122176
:10207B00CCD083D082E0C398FEA3E099FF740A1200
:10208B000B8E1221D6500A7408120B8EE4F0A3802B
:10209B00327405120B8EE06004D2F08002C2F07431
:1020AB000A120B8EE0C39EF8A3E09FF9A2F0E49214
:1020BB00E0FAE8C39AF8E99400F97408120B8EE879
:1020CB00F0A3E9F0740C120B8EE0702B8019746185
:1020DB00120B8E1221C2120B8E121757120B987401
:1020EB000F120B8E1222D57408120B8E122296121F
:1020FB000B8E12176250D77405120B8EE0604D7465
:10210B0061120B8E1221BC7405120B8EE0F9741840
:10211B00120B8E121757120B9880297461120B8EAB
:10212B001221BC851082851183122211F9741812A9
:10213B000B8E121757120B98851082851183122262
:10214B006B121791740F120B8E1222D5EE24FF1EF9
:10215B00EF34FFFFC312174150C1740C120B8EE00A
:10216B0070030217FD7408120B8E122296120B8E3F
:10217B0012176250030217FD7461120B8E1221C2EB
:10218B00120B8E121757120B98740F120B8E122202
:10219B00D580D2C3EF021741E02401F0A3E0340055
:1021AB0022A2F0E492E0F8E0C398FEA3E09400FFD3
:1021BB0022E0FAA3E0FB22E0FAA3E0FB79207418FB
:1021CB002285108285118312228222C3E09EA3E016
:1021DB001221DF229F021743F8A3E03400F9746346
:1021EB00221221F022E0FAA3E0F5838A8222122147
:1021FB00F0E0221221F0E0FAA3E022122282C3E4E3
:10220B0098F8E499F9221222152212221AE022E000
:10221B00F8A3E0F583888222122215F508C39430C7
:10222B002212221512221B221222152402F880A937
:10223B0012227BE8FAE9FB74142285108285118344
:10224B00E01222502224FFF8A3E034FFF922E0240D
:10225B000108A3E03400F974022212226B740222EB
:10226B00E02401F8A3E03400F92212227B74062249
:10227B0012221A12228222E0F8A3E0F922E0FCA338
:10228B00E0F5838C82EAF0A3EBF022E024FFF0A3CD
:10229B00E034FFF0740822E8F0A3E9F0740222EABC
:1022AB00F0A3EBF0A3E4F0A3F07406221222F4F9EE
:1022BB00221221F0E8F0A3E9F0741422E8F0A3E96C
:1022CB00F0740422851082851183E02401F0A3E0D1
:1022DB003400F022851082851183E8F0A3E91222E5
:1022EB00F4F58388827430F0221217ABF8A3E02246
:04000005000000CB2C
:00000001FF
